:100000000C9461000C947E000C947E000C947E0095
:100010000C947E000C947E000C947E000C947E0068
:100020000C947E000C947E000C947E000C947E0058
:100030000C947E000C947E000C947E000C947E0048
:100040000C9489010C947E000C947E000C947E002C
:100050000C947E000C947E000C947E000C947E0028
:100060000C947E000C947E00000000002400270009
:100070002A0000000000250028002B0000000000DE
:1000800023002600290004040404040404040202DA
:100090000202020203030303030301020408102007
:1000A0004080010204081020010204081020000012
:1000B0000008000201000003040700000000000027
:1000C000000011241FBECFEFD8E0DEBFCDBF11E08E
:1000D000A0E0B1E0ECEAF7E002C005900D92A63096
:1000E000B107D9F721E0A6E0B1E001C01D92A3322B
:1000F000B207E1F70E94D3010C94D4030C940000E2
:10010000833081F028F4813099F08230A9F008958D
:100110008730A9F08830C9F08430B1F48091800034
:100120008F7D03C0809180008F7780938000089539
:1001300084B58F7784BD089584B58F7DFBCF809182
:10014000B0008F778093B00008958091B0008F7DCC
:10015000F9CFCF93DF93282F30E0F901E255FF4F1D
:100160008491F901E656FF4FD491F901EA57FF4F08
:10017000C491CC23A1F081110E948000EC2FF0E00B
:10018000EE0FFF1FE458FF4FA591B491EC91ED23C2
:1001900081E090E009F480E0DF91CF91089580E064
:1001A00090E0FACF1F93CF93DF93282F30E0F9012F
:1001B000E255FF4F8491F901E656FF4FD491F901C2
:1001C000EA57FF4FC491CC23A9F0162F81110E944A
:1001D0008000EC2FF0E0EE0FFF1FEE58FF4FA591CF
:1001E000B4918FB7F894EC91111108C0D095DE232B
:1001F000DC938FBFDF91CF911F910895DE2BF8CF55
:10020000CF93DF9390E0FC01E656FF4F24918A578D
:100210009F4FFC0184918823D1F090E0880F991FB3
:10022000FC01E859FF4FA591B491FC01EE58FF4F36
:10023000C591D49161110EC09FB7F8948C91E22FB3
:10024000E0958E238C932881E223E8839FBFDF9182
:10025000CF9108958FB7F894EC91E22BEC938FBF78
:10026000F6CF3FB7F8948091070190910801A091D3
:100270000901B0910A0126B5A89B05C02F3F19F0CE
:100280000196A11DB11D3FBFBA2FA92F982F882716
:10029000BC01CD01620F711D811D911D42E0660FF1
:1002A000771F881F991F4A95D1F708958F929F92C3
:1002B000AF92BF92CF92DF92EF92FF926B017C01DF
:1002C0000E9431014B015C01C114D104E104F1042D
:1002D000B9F00E943101681979098A099B09683EC1
:1002E00073408105910580F321E0C21AD108E1082D
:1002F000F10888EE880E83E0981EA11CB11CE4CFA3
:10030000FF90EF90DF90CF90BF90AF909F908F9035
:1003100008951F920F920FB60F9211242F933F93BF
:100320008F939F93AF93BF9380910B0190910C019A
:10033000A0910D01B0910E013091060123E0230F31
:100340002D3758F50196A11DB11D2093060180930C
:100350000B0190930C01A0930D01B0930E018091BD
:10036000070190910801A0910901B0910A0101963D
:10037000A11DB11D8093070190930801A09309016D
:10038000B0930A01BF91AF919F918F913F912F91AF
:100390000F900FBE0F901F90189526E8230F02961E
:1003A000A11DB11DD2CF789484B5826084BD84B57F
:1003B000816084BD85B5826085BD85B5816085BD60
:1003C00080916E00816080936E0010928100809118
:1003D00081008260809381008091810081608093A0
:1003E0008100809180008160809380008091B100C5
:1003F00084608093B1008091B00081608093B000F0
:1004000080917A00846080937A0080917A00826083
:1004100080937A0080917A00816080937A00809145
:100420007A00806880937A001092C10061E082E0D7
:100430000E94000161E083E00E94000161E084E02D
:100440000E94000160E08AE00E94000161E085E016
:100450000E94000160E08CE00E94000161E087E002
:100460000E94000161E088E00E94000160E089E0F4
:100470000E94000161E086E00E94000160E08BE0E4
:100480000E94000183E0E82EF12C00E010E0C09112
:100490002101D09122012097A1F460E082E00E9426
:1004A000D20060E083E00E94D20060E084E00E941D
:1004B000D20060E085E00E94D20060E086E00E9409
:1004C000D20080911D0190911E01019709F009C190
:1004D000C130D10509F005C12FB7F89480910B0107
:1004E00090910C01A0910D01B0910E012FBF409190
:1004F00011015091120160911301709114015C017E
:100500006D01A41AB50AC60AD70AB601A5014C3274
:10051000514061057105C0F0809311019093120163
:10052000A0931301B093140180910F0190911001D9
:10053000892B09F0D1C0D0931001C0930F016091B5
:100540000F0186E00E94D20089E00E94A900EC0120
:100550009093160180931501809100019091010103
:10056000892BB1F4C130D10599F48091210190918A
:100570002201892B09F0C2C061E087E00E94D2000D
:1005800061E088E00E94D200D0932201C093210153
:10059000D0930101C09300016AE070E080E090E038
:1005A0000E9456018AE00E94A900019771F580918E
:1005B000210190912201019741F5C0911701D0913D
:1005C0001801CE01B7010E94AC036C0182E0C8168D
:1005D000D10409F0A0C061E082E00E94D20060E096
:1005E00083E00E94D20061E0CD2809F0A1C084E040
:1005F0000E94D2002196D0931801C09317016CE29B
:1006000071E080E090E00E9456018CE00E94A90019
:10061000EC0190931C0180931B0180910201909149
:100620000301892BC1F4C130D105A9F480912101C6
:1006300090912201019779F48091190190911A010A
:10064000892B09F077C061E085E00E94D200D09349
:100650001A01C0931901D0930301C09302016AE00B
:1006600070E080E090E00E9456018BE00E94A900BB
:10067000EC019093200180931F01809104019091DF
:100680000501892BC1F4C130D105A9F48091210164
:1006900090912201019779F480911D0190911E01A2
:1006A000892B09F050C061E086E00E94D200D0930F
:1006B0001E01C0931D01D0930501C09304016AE09F
:1006C00070E080E090E00E9456010115110509F4E8
:1006D000DECE0E940000DBCE1092100110920F01BE
:1006E0002ECF60E086E00E94D2001092100110929E
:1006F0000F0110921E0110921D0126CF60E087E0CD
:100700000E94D20060E088E00E94D2001092220194
:10071000109221013DCF60E082E00E94D20021E0F2
:10072000C216D10409F05BCF61E083E00E94D200E1
:1007300060E05DCF60E085E00E94D20010921A0177
:100740001092190188CF60E086E00E94D2001092DA
:100750001E0110921D01AFCF97FB072E16F40094D7
:1007600007D077FD09D00E94C00307FC05D03EF4F6
:10077000909581959F4F0895709561957F4F08954D
:10078000AA1BBB1B51E107C0AA1FBB1FA617B707B7
:1007900010F0A61BB70B881F991F5A95A9F78095D3
:0C07A0009095BC01CD010895F894FFCFA6
:0607AC0001000100010044
:00000001FF
